:04000000FAEF3EF0E5
:107D84002420697320776F726B696E67206F6E2091
:107D9400493243000FEC3FF0C584C5B4D4EF3EF044
:107DA400D6EF3EF0CFEF3EF09E96C7501200000E85
:107DB4000F013A6F94869488800EC76E280EC66EA3
:107DC400000EC56E130EC86E9D869E961200156E2B
:107DD40015C0C9FF0FEC3FF0C5ACF3EF3EF0F5EF73
:107DE4003EF0F8EF3EF0010EF9EF3EF0020E120005
:107DF400840EF66E7D0EF76E000EF86E00EE01F046
:107E040010EE14F00900F5CFEEFFE550E150FAE171
:107E14001E6A1D6A00013DEF3FF0A1B614EF3FF06A
:107E240016EF3FF00FEF3FF0C7B01BEF3FF01DEF31
:107E34003FF016EF3FF0C7B422EF3FF024EF3FF0DE
:107E440016EF3FF09E961200166EC580C5B02DEF5A
:107E54003FF02FEF3FF028EF3FF09E96C7B635EF87
:107E64003FF037EF3FF039EF3FF03CEF3FF0165073
:107E7400E9EC3EF01200EA0E1C6EC30EE82EFED7AB
:107E84001C2EFCD700F0EA0E1C6EC30EE82EFED7A3
:107E94001C2EFCD700F0EA0E1C6EC30EE82EFED793
:107EA4001C2EFCD700F0EA0E1C6EC30EE82EFED783
:107EB4001C2EFCD700F0EA0E1C6EC30EE82EFED773
:107EC4001C2EFCD700F0EA0E1C6EC30EE82EFED763
:107ED4001C2EFCD700F0EA0E1C6EC30EE82EFED753
:107EE4001C2EFCD700F0EA0E1C6EC30EE82EFED743
:107EF4001C2EFCD700F0EA0E1C6EC30EE82EFED733
:107F04001C2EFCD700F0EA0E1C6EC30EE82EFED722
:107F14001C2EFCD700F0EA0E1C6EC30EE82EFED712
:107F24001C2EFCD700F0EA0E1C6EC30EE82EFED702
:107F34001C2EFCD700F0EA0E1C6EC30EE82EFED7F2
:107F44001C2EFCD700F0EA0E1C6EC30EE82EFED7E2
:107F54001C2EFCD700F0EA0E1C6EC30EE82EFED7D2
:107F64001C2EFCD700F0EA0E1C6EC30EE82EFED7C2
:107F74001C2EFCD700F0EA0E1C6EC30EE82EFED7B2
:107F84001C2EFCD700F0EA0E1C6EC30EE82EFED7A2
:107F94001C2EFCD700F0D9EC3EF0000E1E6E000E35
:107FA4001D6EA00E26EC3FF01D50E9EC3EF0010ED4
:107FB4001D24D96E000E1E20DA6EDF50E9EC3EF06F
:107FC400CCEC3EF01A0E1C6EF80EE82EFED71C2EDA
:107FD400FCD700D01D4A1E2A1EBEFAEF3FF01E50E9
:107FE40009E1140E1D5CD8A0FAEF3FF0FCEF3FF05E
:0C7FF400D3EF3FF0FCEF3FF000EF00F097
:020000040020DA
:08000000FFFFFFFFFFFFFFFF00
:020000040030CA
:0E000000FF221F3CFFBF85FF0FC00FE00F4027
:00000001FF
