:0400000065EF3BF07D
:10757200C59AC588C5B8C0EF3AF0C2EF3AF0BBEF82
:107582003AF01200C58AC588C5B8CAEF3AF0CCEF06
:087592003AF0C5EF3AF01200D7
:10759B002420697320776F726B696E67206F6E2082
:1075AB0049324300FF19EC3BF0C584C5B4E0EF3A18
:1075BB00F0E2EF3AF0DBEF3AF09E96C75012000084
:1075CB000E0F013A6F94869488800EC76E280EC6F4
:1075DB006E000EC56E130EC86E9D869E9612000130
:1075EB006E01C0C9FF19EC3BF0C5ACFFEF3AF001DF
:1075FB00EF3BF004EF3BF0010E05EF3BF0020E12F8
:10760B000001500302F3CF05F0F4CF06F001500454
:10761B0002F350062602500302F350062605C00162
:10762B00F006C002F01200A1B61EEF3BF020EF3BBC
:10763B00F019EF3BF0C7B025EF3BF027EF3BF02005
:10764B00EF3BF0C7B42CEF3BF02EEF3BF020EF3BC2
:10765B00F09E961200026EC580C5B037EF3BF03935
:10766B00EF3BF032EF3BF09E96C7B63FEF3BF0415E
:10767B00EF3BF043EF3BF046EF3BF00250F5EC3ABB
:10768B00F01200016EC586C7A04EEF3BF050EF3BEA
:10769B00F049EF3BF0C9CF02F0036A0150D8A4596F
:1076AB00EF3BF05BEF3BF05FEF3BF0B9EC3AF06197
:1076BB00EF3BF0C3EC3AF019EC3BF0025012009B9D
:1076CB000EF66E750EF76E000EF86E00EE25F010CE
:1076DB00EE15F00900F5CFEEFFE550E150FAE100B1
:1076EB00EE60F0820EEE6AE806FDE13F6A3E6A3D0F
:1076FB006A3C6A3B6A3A6A000EF86E0001B2EF3DD3
:10770B00F0000E016E81988196818800D0819800DF
:10771B00D0956881948186818800D0819800D0991A
:10772B00EF3BF000D0012A83AE9EEF3BF0A0EF3B86
:10773B00F0A8EF3BF0310E0164A6EF3BF0A8EF3B56
:10774B00F097EF3BF08196120081808192819481BA
:10775B0096000E956E3F0E836E86EC3BF081948106
:10776B0096000E956E400E836E86EC3BF0819081F9
:10777B008281948196000E956E3F0E836E86EC3B54
:10778B00F081948196000E956E400E836E86EC3BD5
:10779B00F0120003500410D8B4D6EF3BF0D8EF3BF7
:1077AB00F0FCEF3BF0010E056EE0EF3BF0D89003E1
:1077BB00360436052A04AEE5EF3BF0E7EF3BF0DC91
:1077CB00EF3BF00350015C04500258D8A0F0EF3BA4
:1077DB00F0F2EF3BF0F6EF3BF00350015E0450028A
:1077EB005AD89004320332052EE7EF3BF001C0016B
:1077FB00F002C002F01200000E066E000E056E03C2
:10780B00500410D8B40CEF3CF00EEF3CF036EF3CCC
:10781B00F0010E076E16EF3CF0D8900336043607D6
:10782B002A04AE1BEF3CF01DEF3CF012EF3CF0D8FE
:10783B0090053606360350015C04500258D8A02937
:10784B00EF3CF02BEF3CF030EF3CF00350015E04CB
:10785B0050025A0580D89004320332072E1DEF3C9C
:10786B00F005C001F006C002F01200000E066E001B
:10787B000E056E89EF3CF005BC46EF3CF04AEF3C41
:10788B00F0026A022A4BEF3CF0026A024681500278
:10789B0018FD0B0218816E81A256EF3CF05AEF3C9B
:1078AB00F0026A022A5BEF3CF0026A81500218FE7A
:1078BB000B0218816E81948196000E956E05C002A5
:1078CB00F006C003F0070E046ED8900332023204A8
:1078DB002E6AEF3CF00250B80F836E86EC3BF081C2
:1078EB00948196000E956E05503F0B400F836E866C
:1078FB00EC3BF081848196000E956E000E836E86B4
:10790B00EC3BF0054A062A040E065CD8A090EF3C2F
:10791B00F092EF3CF041EF3CF01200000E1F6E00B6
:10792B000E1E6E0AC00EF00BC00FF0070ED8900E95
:10793B00360F36E82E9CEF3CF008C001F009C00270
:10794B00F0000E046E060E036E06EC3BF00E5001BB
:10795B0024226E0F500220236E22C020F023C02160
:10796B00F0A3EF3DF022BCBDEF3CF0C1EF3CF00EBD
:10797B006A0E2AC2EF3CF00E6A0E4681500E18FDBD
:10798B000B0E18816E81A2CDEF3CF0D1EF3CF00EC7
:10799B006A0E2AD2EF3CF00E6A81500E18FE0B0EC7
:1079AB0018816E81948196000E956E22C00EF02385
:1079BB00C00FF0070E106ED8900F320E32102EE162
:1079CB00EF3CF00E50B80F836E86EC3BF081948148
:1079DB0096000E956E22503F0B400F836E86EC3B4C
:1079EB00F081848196000E956E7F0E22140E6E0030
:1079FB000E23140F6E0F5009E17E0E0E5CD8A009FA
:107A0B00EF3DF00BEF3DF00FEF3DF0000E836E8876
:107A1B00EF3DF07F0E2214016E026A000E046E061B
:107A2B000E036ECFEC3BF001500210D8A420EF3DBB
:107A3B00F022EF3DF024EF3DF00BEF3DF05F0E0E2B
:107A4B006EFF0E0F6E2050225C106E2150235811CA
:107A5B006E7F0E1014016E026A000E046E060E038A
:107A6B006E01EC3CF02050225C126E215023581317
:107A7B006E070E146ED89013321232142E40EF3D57
:107A8B00F0150E1202F3CF15F0F4CF16F01302F32C
:107A9B005016260CC017F00DC018F01550172616EF
:107AAB0050182201501724D96E02501820DA6EDFBD
:107ABB0050196E1950050D230E1A6E7E0E1B6EF3A8
:107ACB00501A26F4501B222050225C1C6E2150238E
:107ADB00581D6E7F0E1C14016E026A000E046E069A
:107AEB000E036ECFEC3BF001501A2602501B220EF8
:107AFB00501A260F501B221AC0F6FF1BC0F7FF08A7
:107B0B0000F5CF83FF86EC3BF0224A232A2050223C
:107B1B005C016E21502358026E000E046E060E039C
:107B2B006ECFEC3BF001500210D8A49FEF3DF0A1BB
:107B3B00EF3DF0A3EF3DF01E4A1F2A1E500C24D937
:107B4B006E1F500D20DA6EDF50D8A4AFEF3DF0B1B1
:107B5B00EF3DF0B8EF3CF01200000E0F01396FC093
:107B6B000E936E000E3B6F9568818A00D0AAEC3B9A
:107B7B00F03BEC3CF0EA0E246EC30EE82EFED7244D
:107B8B002EFCD700F0EA0E246EC30EE82EFED7248F
:107B9B002EFCD700F0EA0E246EC30EE82EFED7247F
:107BAB002EFCD700F0EA0E246EC30EE82EFED7246F
:107BBB002EFCD700F0EA0E246EC30EE82EFED7245F
:107BCB002EFCD700F0EA0E246EC30EE82EFED7244F
:107BDB002EFCD700F0EA0E246EC30EE82EFED7243F
:107BEB002EFCD700F0EA0E246EC30EE82EFED7242F
:107BFB002EFCD700F0E5EC3AF0000E3F6E000E3E87
:107C0B006EA00E30EC3BF03E50F5EC3AF0250E3EFC
:107C1B0024D96E000E3F20DA6EDF50F5EC3AF0D827
:107C2B00EC3AF01A0E246EF80EE82EFED7242EFC3A
:107C3B00D700D03E4A3F2A3FBE2DEF3EF03F5009C2
:107C4B00E1140E3E5CD8A02DEF3EF02FEF3EF00678
:107C5B00EF3EF0EA0E246EC30EE82EFED7242EFC68
:107C6B00D700F0EA0E246EC30EE82EFED7242EFCAE
:107C7B00D700F0EA0E246EC30EE82EFED7242EFC9E
:107C8B00D700F0EA0E246EC30EE82EFED7242EFC8E
:107C9B00D700F0EA0E246EC30EE82EFED7242EFC7E
:107CAB00D700F0EA0E246EC30EE82EFED7242EFC6E
:107CBB00D700F0EA0E246EC30EE82EFED7242EFC5E
:107CCB00D700F0EA0E246EC30EE82EFED7242EFC4E
:107CDB00D700F0000E3F6E000E3E6E396897EF3EF8
:107CEB00F0A00E30EC3BF03E50F5EC3AF0D8EC3A0D
:107CFB00F0A10E30EC3BF0600E3E24D96E000E3F2F
:107D0B0020DA6E010E47EC3BF0DF6E600E3E24D99D
:107D1B006E000E3F20DA6EDF50396ED8EC3AF03E33
:107D2B004A3F2A3950D8A49DEF3EF09FEF3EF076A4
:107D3B00EF3EF0000E3D6E000E3C6E000E3B6E00F3
:107D4B000E3A6E3968F7EF3EF0600E3C24D96E00A8
:107D5B000E3D20DA6E240EDE18D8A4B7EF3EF0B934
:107D6B00EF3EF0DDEF3EF0920E3A24D96E000E3B63
:107D7B0020DA6E4F0EDF6E930E3A24D96E000E3B57
:107D8B0020DA6E4E0EDF6E940E3A24D96E000E3B47
:107D9B0020DA6E550EDF6E030E3A26000E3B226084
:107DAB000E3C24D96E000E3D20DA6E520EDF6E6053
:107DBB000E3C24D96E000E3D20DA6E920E3A24E171
:107DCB006E000E3B20E26EDFCFE7FF600E3C24D946
:107DDB006E000E3D20DA6EDF50396E3C4A3D2A3A7A
:107DEB004A3B2A3950D8A4FDEF3EF0FFEF3EF0AAF4
:107DFB00EF3EF0000E096E000E086E000E0B6E00CB
:107E0B000E0A6E920E0C6E000E0D6E93EC3CF00D86
:107E1B00EF3FF000EF00F000000000000000005FFB
:107E2B0000000003000300143E143E14242A7F2A92
:107E3B001243330866613649552250000503000092
:107E4B00001C2241000041221C0014083E081408AB
:107E5B00083E0808005030000008080808080060B9
:107E6B0060000020100804023E5149453E00040208
:107E7B007F00426151494622414949361814127F0D
:107E8B001027454545393E494949320101710907DA
:107E9B003649494936264949493E003636000000E5
:107EAB005636000008142241001414141414004117
:107EBB0022140802015109063E4159555E7E0909FB
:107ECB00097E7F494949363E414141227F4141412B
:107EDB003E7F494949417F090909013E4141493AE0
:107EEB007F0808087F00417F4100304040403F7FC2
:107EFB00081422417F404040407F020C027F7F02EA
:107F0B0004087F3E4141413E7F090909061E21219C
:107F1B00215E7F09090976264949493201017F0112
:107F2B00013F4040403F1F2040201F7F2010207FFB
:107F3B0041221C2241070870080761514945430043
:107F4B007F41000002040810200000417F00040262
:107F5B000102044040404040000102040020545400
:107F6B0054787F444444383844444444384444446B
:107F7B007F385454541804047E0505085454543C5B
:107F8B007F0804047800447D40002040443D007F7E
:107F9B001028440000417F40007C047804787C0862
:107FAB0004047838444444387C141414080814141A
:107FBB00147C007C080404485454542004043F44AB
:107FCB00443C4040207C1C2040201C3C4030403C2A
:107FDB0044281028440C5050503C4464544C4400EA
:107FEB000836414100007F00004141360800020184
:047FFB00020402007A
:020000040020DA
:08000000FFFFFFFFFFFFFFFF00
:020000040030CA
:0E000000FF221F3CFFBF85FF0FC00FE00F4027
:00000001FF
